:100000000C942A000C943C000C943C000C943C0092
:100010000C943C000C943C000C943C000C943C0070
:100020000C943C000C94EB030C943C000C943C00AE
:100030000C943C000C943C000C943C000C943C0050
:100040000C943C000C943C000C943C000C943C0040
:100050000C943C0011241FBECFE5D4E0DEBFCDBF21
:1000600010E0A0E6B0E001C01D92A236B107E1F7B2
:100070000E9413040C9455040C940000DF93CF935A
:1000800000D000D00F92CDB7DEB789836A834B834F
:100090008981282F30E03D832C838C819D818130A4
:1000A000910509F447C02C813D81223031052CF4A3
:1000B0008C819D81009771F0CBC02C813D812230D5
:1000C000310509F467C08C819D818330910509F465
:1000D00091C0BEC08B818130A1F4AAE3B0E0EAE315
:1000E000F0E08081482F8A81282F30E081E090E085
:1000F000022E02C0880F991F0A94E2F7842B8C937A
:10010000A7C08B81882309F0A3C0AAE3B0E0EAE38B
:10011000F0E08081482F8A81282F30E081E090E054
:10012000022E02C0880F991F0A94E2F7809584235B
:100130008C938EC08B818130A1F4A7E3B0E0E7E31C
:10014000F0E08081482F8A81282F30E081E090E024
:10015000022E02C0880F991F0A94E2F7842B8C9319
:1001600077C08B81882309F073C0A7E3B0E0E7E391
:10017000F0E08081482F8A81282F30E081E090E0F4
:10018000022E02C0880F991F0A94E2F780958423FB
:100190008C935EC08B818130A1F4A4E3B0E0E4E3F2
:1001A000F0E08081482F8A81282F30E081E090E0C4
:1001B000022E02C0880F991F0A94E2F7842B8C93B9
:1001C00047C08B81882309F043C0A4E3B0E0E4E397
:1001D000F0E08081482F8A81282F30E081E090E094
:1001E000022E02C0880F991F0A94E2F7809584239B
:1001F0008C932EC08B818130A1F4A1E3B0E0E1E3C8
:10020000F0E08081482F8A81282F30E081E090E063
:10021000022E02C0880F991F0A94E2F7842B8C9358
:1002200017C08B818823A1F4A1E3B0E0E1E3F0E003
:100230008081482F8A81282F30E081E090E0022ED3
:1002400002C0880F991F0A94E2F7809584238C934B
:100250000F900F900F900F900F90CF91DF91089516
:10026000DF93CF9300D000D00F92CDB7DEB7898354
:100270006A834B838981282F30E03D832C838C81D6
:100280009D818130910509F447C02C813D81223048
:1002900031052CF48C819D81009771F0CBC02C81AD
:1002A0003D812230310509F467C08C819D81833006
:1002B000910509F491C0BEC08B818130A1F4ABE3FC
:1002C000B0E0EBE3F0E08081482F8A81282F30E016
:1002D00081E090E0022E02C0880F991F0A94E2F795
:1002E000842B8C93A7C08B81882309F0A3C0ABE338
:1002F000B0E0EBE3F0E08081482F8A81282F30E0E6
:1003000081E090E0022E02C0880F991F0A94E2F764
:10031000809584238C938EC08B818130A1F4A8E3D7
:10032000B0E0E8E3F0E08081482F8A81282F30E0B8
:1003300081E090E0022E02C0880F991F0A94E2F734
:10034000842B8C9377C08B81882309F073C0A8E33A
:10035000B0E0E8E3F0E08081482F8A81282F30E088
:1003600081E090E0022E02C0880F991F0A94E2F704
:10037000809584238C935EC08B818130A1F4A5E3AA
:10038000B0E0E5E3F0E08081482F8A81282F30E05B
:1003900081E090E0022E02C0880F991F0A94E2F7D4
:1003A000842B8C9347C08B81882309F043C0A5E33D
:1003B000B0E0E5E3F0E08081482F8A81282F30E02B
:1003C00081E090E0022E02C0880F991F0A94E2F7A4
:1003D000809584238C932EC08B818130A1F4A2E37D
:1003E000B0E0E2E3F0E08081482F8A81282F30E0FE
:1003F00081E090E0022E02C0880F991F0A94E2F774
:10040000842B8C9317C08B818823A1F4A2E3B0E0E6
:10041000E2E3F0E08081482F8A81282F30E081E0FC
:1004200090E0022E02C0880F991F0A94E2F780958F
:1004300084238C930F900F900F900F900F90CF917B
:10044000DF910895DF93CF9300D000D0CDB7DEB712
:1004500089836A838981282F30E03C832B838B81B9
:100460009C818130910549F12B813C8122303105FD
:100470002CF48B819C81009761F05AC02B813C81C8
:100480002230310571F18B819C8183309105E9F136
:100490004FC0ABE3B0E0EBE3F0E08081482F8A810E
:1004A000282F30E081E090E0022E02C0880F991FD3
:1004B0000A94E2F7842B8C933BC0A8E3B0E0E8E316
:1004C000F0E08081482F8A81282F30E081E090E0A1
:1004D000022E02C0880F991F0A94E2F7842B8C9396
:1004E00027C0A5E3B0E0E5E3F0E08081482F8A81F2
:1004F000282F30E081E090E0022E02C0880F991F83
:100500000A94E2F7842B8C9313C0A2E3B0E0E2E3F9
:10051000F0E08081482F8A81282F30E081E090E050
:10052000022E02C0880F991F0A94E2F7842B8C9345
:100530000F900F900F900F90CF91DF910895DF9360
:10054000CF9300D000D0CDB7DEB789836A8389818D
:10055000282F30E03C832B838B819C818130910557
:1005600021F12B813C81223031052CF48B819C813F
:10057000009761F046C02B813C812230310521F18A
:100580008B819C818330910571F13BC08A818130E0
:1005900029F4EAE3F0E08FEF808333C08A81882377
:1005A00081F5EAE3F0E010822CC08A81813029F4E1
:1005B000E7E3F0E08FEF808324C08A81882309F588
:1005C000E7E3F0E010821DC08A81813029F4E4E382
:1005D000F0E08FEF808315C08A81882391F4E4E3F3
:1005E000F0E010820EC08A81813029F4E1E3F0E06E
:1005F0008FEF808306C08A81882319F4E1E3F0E05D
:1006000010820F900F900F900F90CF91DF9108956F
:10061000DF93CF9300D000D0CDB7DEB789836A8354
:100620008981282F30E03C832B838B819C81813012
:10063000910521F12B813C81223031052CF48B81F5
:100640009C81009761F046C02B813C8122303105AE
:1006500021F18B819C818330910571F13BC08A81AE
:10066000882329F0EBE3F0E08A81808333C08A811C
:10067000882381F5EBE3F0E010822CC08A81882387
:1006800029F0E8E3F0E08A81808324C08A8188230E
:1006900009F5E8E3F0E010821DC08A81882329F083
:1006A000E5E3F0E08A81808315C08A81882391F494
:1006B000E5E3F0E010820EC08A81882329F0E2E3AE
:1006C000F0E08A81808306C08A81882319F4E2E3FE
:1006D000F0E010820F900F900F900F90CF91DF916C
:1006E0000895DF93CF9300D000D00F92CDB7DEB73F
:1006F00089836A838981282F30E03D832C838C8114
:100700009D818130910539F12C813D812230310567
:100710002CF48C819D81009761F053C02C813D8128
:100720002230310551F18C819D8183309105B9F1E1
:1007300048C0E9E3F0E08081482F8A81282F30E02B
:1007400081E090E0022E02C0880F991F0A94E2F720
:1007500084238B8337C0E6E3F0E08081482F8A81D1
:10076000282F30E081E090E0022E02C0880F991F10
:100770000A94E2F784238B8325C0E3E3F0E08081D1
:10078000482F8A81282F30E081E090E0022E02C0BD
:10079000880F991F0A94E2F784238B8313C0E0E348
:1007A000F0E08081482F8A81282F30E081E090E0BE
:1007B000022E02C0880F991F0A94E2F784238B83CC
:1007C00001C01B828B810F900F900F900F900F90A4
:1007D000CF91DF9108951F920F920FB60F921124BF
:1007E0008F93DF93CF93CDB7DEB7809161008F5F9A
:1007F0008093610080916100843069F48091600091
:100800008F5F80936000809160008A3011F41092B5
:10081000600010926100CF91DF918F910F900FBE19
:100820000F901F901895DF93CF93CDB7DEB782E07E
:1008300061E00E949F0282E060E00E9408030E9443
:1008400028049091600082E0692F0E940803F9CF8C
:10085000DF93CF93CDB7DEB7AFE5B0E0EFE5F0E0E3
:10086000808180688C93E2E5F0E01082A9E5B0E039
:10087000E9E5F0E0808181608C93A3E5B0E0E3E5F9
:10088000F0E0808180688C93A3E5B0E0E3E5F0E0E0
:10089000808181608C93A3E5B0E0E3E5F0E08081A6
:0E08A00084608C93CF91DF910895F894FFCF80
:00000001FF
