:100000000C942A000C9436000C9434000C943400A8
:100010000C9434000C9434000C9434000C94340090
:100020000C9434000C9434000C9434000C94340080
:100030000C9434000C9434000C9434000C94340070
:100040000C9434000C9434000C9434000C94340060
:100050000C94340011241FBECFE5D4E0DEBFCDBF29
:100060000E945A000C94A7000C9400001F920F925B
:100070000FB60F9211248F939F93AF93BF93EF937B
:10008000FF93DF93CF93CDB7DEB7A7E3B0E0E7E30D
:10009000F0E0908181E089278C93CF91DF91FF91EF
:1000A000EF91BF91AF919F918F910F900FBE0F90E5
:1000B0001F901895DF93CF93CDB7DEB70E946F00E6
:1000C000A7E3B0E0E7E3F0E0808181608C93A8E3F0
:1000D000B0E0E8E3F0E0808181608C93FFCFDF93B4
:1000E000CF93CDB7DEB7AFE5B0E0EFE5F0E08081CC
:1000F0008F778C93AAE3B0E0EAE3F0E080818E7F13
:100100008C93ABE3B0E0EBE3F0E0808181608C9313
:10011000ABE5B0E0EBE5F0E0808180648C93A5E591
:10012000B0E0E5E5F0E0808182608C93A5E5B0E089
:10013000E5E5F0E0808181608C93AFE5B0E0EFE52C
:10014000F0E0808180688C93CF91DF910895F894DE
:02015000FFCFDF
:00000001FF
